{
  "_format": "hh-sol-artifact-1",
  "contractName": "NFT",
  "sourceName": "contracts/NFT.sol",
  "abi": [
    {
      "inputs": [
        {
          "internalType": "address",
          "name": "marketplaceAddress",
          "type": "address"
        }
      ],
      "stateMutability": "nonpayable",
      "type": "constructor"
    },
    {
      "inputs": [
        {
          "internalType": "address",
          "name": "sender",
          "type": "address"
        },
        {
          "internalType": "uint256",
          "name": "tokenId",
          "type": "uint256"
        },
        {
          "internalType": "address",
          "name": "owner",
          "type": "address"
        }
      ],
      "name": "ERC721IncorrectOwner",
      "type": "error"
    },
    {
      "inputs": [
        {
          "internalType": "address",
          "name": "operator",
          "type": "address"
        },
        {
          "internalType": "uint256",
          "name": "tokenId",
          "type": "uint256"
        }
      ],
      "name": "ERC721InsufficientApproval",
      "type": "error"
    },
    {
      "inputs": [
        {
          "internalType": "address",
          "name": "approver",
          "type": "address"
        }
      ],
      "name": "ERC721InvalidApprover",
      "type": "error"
    },
    {
      "inputs": [
        {
          "internalType": "address",
          "name": "operator",
          "type": "address"
        }
      ],
      "name": "ERC721InvalidOperator",
      "type": "error"
    },
    {
      "inputs": [
        {
          "internalType": "address",
          "name": "owner",
          "type": "address"
        }
      ],
      "name": "ERC721InvalidOwner",
      "type": "error"
    },
    {
      "inputs": [
        {
          "internalType": "address",
          "name": "receiver",
          "type": "address"
        }
      ],
      "name": "ERC721InvalidReceiver",
      "type": "error"
    },
    {
      "inputs": [
        {
          "internalType": "address",
          "name": "sender",
          "type": "address"
        }
      ],
      "name": "ERC721InvalidSender",
      "type": "error"
    },
    {
      "inputs": [
        {
          "internalType": "uint256",
          "name": "tokenId",
          "type": "uint256"
        }
      ],
      "name": "ERC721NonexistentToken",
      "type": "error"
    },
    {
      "inputs": [
        {
          "internalType": "address",
          "name": "owner",
          "type": "address"
        }
      ],
      "name": "OwnableInvalidOwner",
      "type": "error"
    },
    {
      "inputs": [
        {
          "internalType": "address",
          "name": "account",
          "type": "address"
        }
      ],
      "name": "OwnableUnauthorizedAccount",
      "type": "error"
    },
    {
      "anonymous": false,
      "inputs": [
        {
          "indexed": true,
          "internalType": "address",
          "name": "owner",
          "type": "address"
        },
        {
          "indexed": true,
          "internalType": "address",
          "name": "approved",
          "type": "address"
        },
        {
          "indexed": true,
          "internalType": "uint256",
          "name": "tokenId",
          "type": "uint256"
        }
      ],
      "name": "Approval",
      "type": "event"
    },
    {
      "anonymous": false,
      "inputs": [
        {
          "indexed": true,
          "internalType": "address",
          "name": "owner",
          "type": "address"
        },
        {
          "indexed": true,
          "internalType": "address",
          "name": "operator",
          "type": "address"
        },
        {
          "indexed": false,
          "internalType": "bool",
          "name": "approved",
          "type": "bool"
        }
      ],
      "name": "ApprovalForAll",
      "type": "event"
    },
    {
      "anonymous": false,
      "inputs": [
        {
          "indexed": false,
          "internalType": "uint256",
          "name": "_fromTokenId",
          "type": "uint256"
        },
        {
          "indexed": false,
          "internalType": "uint256",
          "name": "_toTokenId",
          "type": "uint256"
        }
      ],
      "name": "BatchMetadataUpdate",
      "type": "event"
    },
    {
      "anonymous": false,
      "inputs": [
        {
          "indexed": false,
          "internalType": "uint256",
          "name": "_tokenId",
          "type": "uint256"
        }
      ],
      "name": "MetadataUpdate",
      "type": "event"
    },
    {
      "anonymous": false,
      "inputs": [
        {
          "indexed": true,
          "internalType": "address",
          "name": "previousOwner",
          "type": "address"
        },
        {
          "indexed": true,
          "internalType": "address",
          "name": "newOwner",
          "type": "address"
        }
      ],
      "name": "OwnershipTransferred",
      "type": "event"
    },
    {
      "anonymous": false,
      "inputs": [
        {
          "indexed": true,
          "internalType": "address",
          "name": "from",
          "type": "address"
        },
        {
          "indexed": true,
          "internalType": "address",
          "name": "to",
          "type": "address"
        },
        {
          "indexed": true,
          "internalType": "uint256",
          "name": "tokenId",
          "type": "uint256"
        }
      ],
      "name": "Transfer",
      "type": "event"
    },
    {
      "inputs": [
        {
          "internalType": "address",
          "name": "to",
          "type": "address"
        },
        {
          "internalType": "uint256",
          "name": "tokenId",
          "type": "uint256"
        }
      ],
      "name": "approve",
      "outputs": [],
      "stateMutability": "nonpayable",
      "type": "function"
    },
    {
      "inputs": [
        {
          "internalType": "address",
          "name": "owner",
          "type": "address"
        }
      ],
      "name": "balanceOf",
      "outputs": [
        {
          "internalType": "uint256",
          "name": "",
          "type": "uint256"
        }
      ],
      "stateMutability": "view",
      "type": "function"
    },
    {
      "inputs": [
        {
          "internalType": "string",
          "name": "tokenURI",
          "type": "string"
        }
      ],
      "name": "createToken",
      "outputs": [
        {
          "internalType": "uint256",
          "name": "",
          "type": "uint256"
        }
      ],
      "stateMutability": "nonpayable",
      "type": "function"
    },
    {
      "inputs": [
        {
          "internalType": "uint256",
          "name": "tokenId",
          "type": "uint256"
        }
      ],
      "name": "getApproved",
      "outputs": [
        {
          "internalType": "address",
          "name": "",
          "type": "address"
        }
      ],
      "stateMutability": "view",
      "type": "function"
    },
    {
      "inputs": [
        {
          "internalType": "address",
          "name": "owner",
          "type": "address"
        },
        {
          "internalType": "address",
          "name": "operator",
          "type": "address"
        }
      ],
      "name": "isApprovedForAll",
      "outputs": [
        {
          "internalType": "bool",
          "name": "",
          "type": "bool"
        }
      ],
      "stateMutability": "view",
      "type": "function"
    },
    {
      "inputs": [],
      "name": "name",
      "outputs": [
        {
          "internalType": "string",
          "name": "",
          "type": "string"
        }
      ],
      "stateMutability": "view",
      "type": "function"
    },
    {
      "inputs": [],
      "name": "owner",
      "outputs": [
        {
          "internalType": "address",
          "name": "",
          "type": "address"
        }
      ],
      "stateMutability": "view",
      "type": "function"
    },
    {
      "inputs": [
        {
          "internalType": "uint256",
          "name": "tokenId",
          "type": "uint256"
        }
      ],
      "name": "ownerOf",
      "outputs": [
        {
          "internalType": "address",
          "name": "",
          "type": "address"
        }
      ],
      "stateMutability": "view",
      "type": "function"
    },
    {
      "inputs": [],
      "name": "renounceOwnership",
      "outputs": [],
      "stateMutability": "nonpayable",
      "type": "function"
    },
    {
      "inputs": [
        {
          "internalType": "address",
          "name": "from",
          "type": "address"
        },
        {
          "internalType": "address",
          "name": "to",
          "type": "address"
        },
        {
          "internalType": "uint256",
          "name": "tokenId",
          "type": "uint256"
        }
      ],
      "name": "safeTransferFrom",
      "outputs": [],
      "stateMutability": "nonpayable",
      "type": "function"
    },
    {
      "inputs": [
        {
          "internalType": "address",
          "name": "from",
          "type": "address"
        },
        {
          "internalType": "address",
          "name": "to",
          "type": "address"
        },
        {
          "internalType": "uint256",
          "name": "tokenId",
          "type": "uint256"
        },
        {
          "internalType": "bytes",
          "name": "data",
          "type": "bytes"
        }
      ],
      "name": "safeTransferFrom",
      "outputs": [],
      "stateMutability": "nonpayable",
      "type": "function"
    },
    {
      "inputs": [
        {
          "internalType": "address",
          "name": "operator",
          "type": "address"
        },
        {
          "internalType": "bool",
          "name": "approved",
          "type": "bool"
        }
      ],
      "name": "setApprovalForAll",
      "outputs": [],
      "stateMutability": "nonpayable",
      "type": "function"
    },
    {
      "inputs": [
        {
          "internalType": "bytes4",
          "name": "interfaceId",
          "type": "bytes4"
        }
      ],
      "name": "supportsInterface",
      "outputs": [
        {
          "internalType": "bool",
          "name": "",
          "type": "bool"
        }
      ],
      "stateMutability": "view",
      "type": "function"
    },
    {
      "inputs": [],
      "name": "symbol",
      "outputs": [
        {
          "internalType": "string",
          "name": "",
          "type": "string"
        }
      ],
      "stateMutability": "view",
      "type": "function"
    },
    {
      "inputs": [
        {
          "internalType": "uint256",
          "name": "tokenId",
          "type": "uint256"
        }
      ],
      "name": "tokenURI",
      "outputs": [
        {
          "internalType": "string",
          "name": "",
          "type": "string"
        }
      ],
      "stateMutability": "view",
      "type": "function"
    },
    {
      "inputs": [
        {
          "internalType": "address",
          "name": "from",
          "type": "address"
        },
        {
          "internalType": "address",
          "name": "to",
          "type": "address"
        },
        {
          "internalType": "uint256",
          "name": "tokenId",
          "type": "uint256"
        }
      ],
      "name": "transferFrom",
      "outputs": [],
      "stateMutability": "nonpayable",
      "type": "function"
    },
    {
      "inputs": [
        {
          "internalType": "address",
          "name": "newOwner",
          "type": "address"
        }
      ],
      "name": "transferOwnership",
      "outputs": [],
      "stateMutability": "nonpayable",
      "type": "function"
    }
  ],
  "bytecode": "0x60806040523480156200001157600080fd5b5060405162002ceb38038062002ceb8339818101604052810190620000379190620002c9565b336040518060400160405280601081526020017f4d657461766572736520546f6b656e73000000000000000000000000000000008152506040518060400160405280600481526020017f4d455454000000000000000000000000000000000000000000000000000000008152508160009081620000b5919062000575565b508060019081620000c7919062000575565b505050600073ffffffffffffffffffffffffffffffffffffffff168173ffffffffffffffffffffffffffffffffffffffff16036200013f5760006040517f1e4fbdf70000000000000000000000000000000000000000000000000000000081526004016200013691906200066d565b60405180910390fd5b62000150816200019960201b60201c565b5080600960006101000a81548173ffffffffffffffffffffffffffffffffffffffff021916908373ffffffffffffffffffffffffffffffffffffffff160217905550506200068a565b6000600760009054906101000a900473ffffffffffffffffffffffffffffffffffffffff16905081600760006101000a81548173ffffffffffffffffffffffffffffffffffffffff021916908373ffffffffffffffffffffffffffffffffffffffff1602179055508173ffffffffffffffffffffffffffffffffffffffff168173ffffffffffffffffffffffffffffffffffffffff167f8be0079c531659141344cd1fd0a4f28419497f9722a3daafe3b4186f6b6457e060405160405180910390a35050565b600080fd5b600073ffffffffffffffffffffffffffffffffffffffff82169050919050565b6000620002918262000264565b9050919050565b620002a38162000284565b8114620002af57600080fd5b50565b600081519050620002c38162000298565b92915050565b600060208284031215620002e257620002e16200025f565b5b6000620002f284828501620002b2565b91505092915050565b600081519050919050565b7f4e487b7100000000000000000000000000000000000000000000000000000000600052604160045260246000fd5b7f4e487b7100000000000000000000000000000000000000000000000000000000600052602260045260246000fd5b600060028204905060018216806200037d57607f821691505b60208210810362000393576200039262000335565b5b50919050565b60008190508160005260206000209050919050565b60006020601f8301049050919050565b600082821b905092915050565b600060088302620003fd7fffffffffffffffffffffffffffffffffffffffffffffffffffffffffffffffff82620003be565b620004098683620003be565b95508019841693508086168417925050509392505050565b6000819050919050565b6000819050919050565b600062000456620004506200044a8462000421565b6200042b565b62000421565b9050919050565b6000819050919050565b620004728362000435565b6200048a62000481826200045d565b848454620003cb565b825550505050565b600090565b620004a162000492565b620004ae81848462000467565b505050565b5b81811015620004d657620004ca60008262000497565b600181019050620004b4565b5050565b601f8211156200052557620004ef8162000399565b620004fa84620003ae565b810160208510156200050a578190505b620005226200051985620003ae565b830182620004b3565b50505b505050565b600082821c905092915050565b60006200054a600019846008026200052a565b1980831691505092915050565b600062000565838362000537565b9150826002028217905092915050565b6200058082620002fb565b67ffffffffffffffff8111156200059c576200059b62000306565b5b620005a8825462000364565b620005b5828285620004da565b600060209050601f831160018114620005ed5760008415620005d8578287015190505b620005e4858262000557565b86555062000654565b601f198416620005fd8662000399565b60005b82811015620006275784890151825560018201915060208501945060208101905062000600565b8683101562000647578489015162000643601f89168262000537565b8355505b6001600288020188555050505b505050505050565b620006678162000284565b82525050565b60006020820190506200068460008301846200065c565b92915050565b612651806200069a6000396000f3fe608060405234801561001057600080fd5b506004361061010b5760003560e01c806370a08231116100a2578063a22cb46511610071578063a22cb465146102b8578063b88d4fde146102d4578063c87b56dd146102f0578063e985e9c514610320578063f2fde38b146103505761010b565b806370a0823114610242578063715018a6146102725780638da5cb5b1461027c57806395d89b411461029a5761010b565b806323b872dd116100de57806323b872dd146101aa57806342842e0e146101c657806345576f94146101e25780636352211e146102125761010b565b806301ffc9a71461011057806306fdde0314610140578063081812fc1461015e578063095ea7b31461018e575b600080fd5b61012a60048036038101906101259190611abc565b61036c565b6040516101379190611b04565b60405180910390f35b6101486103cd565b6040516101559190611baf565b60405180910390f35b61017860048036038101906101739190611c07565b61045f565b6040516101859190611c75565b60405180910390f35b6101a860048036038101906101a39190611cbc565b61047b565b005b6101c460048036038101906101bf9190611cfc565b610491565b005b6101e060048036038101906101db9190611cfc565b610593565b005b6101fc60048036038101906101f79190611e84565b6105b3565b6040516102099190611edc565b60405180910390f35b61022c60048036038101906102279190611c07565b61061d565b6040516102399190611c75565b60405180910390f35b61025c60048036038101906102579190611ef7565b61062f565b6040516102699190611edc565b60405180910390f35b61027a6106e9565b005b6102846106fd565b6040516102919190611c75565b60405180910390f35b6102a2610727565b6040516102af9190611baf565b60405180910390f35b6102d260048036038101906102cd9190611f50565b6107b9565b005b6102ee60048036038101906102e99190612031565b6107cf565b005b61030a60048036038101906103059190611c07565b6107f4565b6040516103179190611baf565b60405180910390f35b61033a600480360381019061033591906120b4565b610907565b6040516103479190611b04565b60405180910390f35b61036a60048036038101906103659190611ef7565b61099b565b005b6000634906490660e01b7bffffffffffffffffffffffffffffffffffffffffffffffffffffffff1916827bffffffffffffffffffffffffffffffffffffffffffffffffffffffff191614806103c657506103c582610a21565b5b9050919050565b6060600080546103dc90612123565b80601f016020809104026020016040519081016040528092919081815260200182805461040890612123565b80156104555780601f1061042a57610100808354040283529160200191610455565b820191906000526020600020905b81548152906001019060200180831161043857829003601f168201915b5050505050905090565b600061046a82610b03565b5061047482610b8b565b9050919050565b61048d8282610488610bc8565b610bd0565b5050565b600073ffffffffffffffffffffffffffffffffffffffff168273ffffffffffffffffffffffffffffffffffffffff16036105035760006040517f64a0ae920000000000000000000000000000000000000000000000000000000081526004016104fa9190611c75565b60405180910390fd5b60006105178383610512610bc8565b610be2565b90508373ffffffffffffffffffffffffffffffffffffffff168173ffffffffffffffffffffffffffffffffffffffff161461058d578382826040517f64283d7b00000000000000000000000000000000000000000000000000000000815260040161058493929190612154565b60405180910390fd5b50505050565b6105ae838383604051806020016040528060008152506107cf565b505050565b6000806008549050600860008154809291906105ce906121ba565b91905055506105dd3382610dfc565b6105e78184610ef5565b610614600960009054906101000a900473ffffffffffffffffffffffffffffffffffffffff1660016107b9565b80915050919050565b600061062882610b03565b9050919050565b60008073ffffffffffffffffffffffffffffffffffffffff168273ffffffffffffffffffffffffffffffffffffffff16036106a25760006040517f89c62b640000000000000000000000000000000000000000000000000000000081526004016106999190611c75565b60405180910390fd5b600360008373ffffffffffffffffffffffffffffffffffffffff1673ffffffffffffffffffffffffffffffffffffffff168152602001908152602001600020549050919050565b6106f1610f51565b6106fb6000610fd8565b565b6000600760009054906101000a900473ffffffffffffffffffffffffffffffffffffffff16905090565b60606001805461073690612123565b80601f016020809104026020016040519081016040528092919081815260200182805461076290612123565b80156107af5780601f10610784576101008083540402835291602001916107af565b820191906000526020600020905b81548152906001019060200180831161079257829003601f168201915b5050505050905090565b6107cb6107c4610bc8565b838361109e565b5050565b6107da848484610491565b6107ee6107e5610bc8565b8585858561120d565b50505050565b60606107ff82610b03565b50600060066000848152602001908152602001600020805461082090612123565b80601f016020809104026020016040519081016040528092919081815260200182805461084c90612123565b80156108995780601f1061086e57610100808354040283529160200191610899565b820191906000526020600020905b81548152906001019060200180831161087c57829003601f168201915b5050505050905060006108aa6113be565b905060008151036108bf578192505050610902565b6000825111156108f45780826040516020016108dc92919061223e565b60405160208183030381529060405292505050610902565b6108fd846113d5565b925050505b919050565b6000600560008473ffffffffffffffffffffffffffffffffffffffff1673ffffffffffffffffffffffffffffffffffffffff16815260200190815260200160002060008373ffffffffffffffffffffffffffffffffffffffff1673ffffffffffffffffffffffffffffffffffffffff16815260200190815260200160002060009054906101000a900460ff16905092915050565b6109a3610f51565b600073ffffffffffffffffffffffffffffffffffffffff168173ffffffffffffffffffffffffffffffffffffffff1603610a155760006040517f1e4fbdf7000000000000000000000000000000000000000000000000000000008152600401610a0c9190611c75565b60405180910390fd5b610a1e81610fd8565b50565b60007f80ac58cd000000000000000000000000000000000000000000000000000000007bffffffffffffffffffffffffffffffffffffffffffffffffffffffff1916827bffffffffffffffffffffffffffffffffffffffffffffffffffffffff19161480610aec57507f5b5e139f000000000000000000000000000000000000000000000000000000007bffffffffffffffffffffffffffffffffffffffffffffffffffffffff1916827bffffffffffffffffffffffffffffffffffffffffffffffffffffffff1916145b80610afc5750610afb8261143e565b5b9050919050565b600080610b0f836114a8565b9050600073ffffffffffffffffffffffffffffffffffffffff168173ffffffffffffffffffffffffffffffffffffffff1603610b8257826040517f7e273289000000000000000000000000000000000000000000000000000000008152600401610b799190611edc565b60405180910390fd5b80915050919050565b60006004600083815260200190815260200160002060009054906101000a900473ffffffffffffffffffffffffffffffffffffffff169050919050565b600033905090565b610bdd83838360016114e5565b505050565b600080610bee846114a8565b9050600073ffffffffffffffffffffffffffffffffffffffff168373ffffffffffffffffffffffffffffffffffffffff1614610c3057610c2f8184866116aa565b5b600073ffffffffffffffffffffffffffffffffffffffff168173ffffffffffffffffffffffffffffffffffffffff1614610cc157610c726000856000806114e5565b6001600360008373ffffffffffffffffffffffffffffffffffffffff1673ffffffffffffffffffffffffffffffffffffffff168152602001908152602001600020600082825403925050819055505b600073ffffffffffffffffffffffffffffffffffffffff168573ffffffffffffffffffffffffffffffffffffffff1614610d44576001600360008773ffffffffffffffffffffffffffffffffffffffff1673ffffffffffffffffffffffffffffffffffffffff168152602001908152602001600020600082825401925050819055505b846002600086815260200190815260200160002060006101000a81548173ffffffffffffffffffffffffffffffffffffffff021916908373ffffffffffffffffffffffffffffffffffffffff160217905550838573ffffffffffffffffffffffffffffffffffffffff168273ffffffffffffffffffffffffffffffffffffffff167fddf252ad1be2c89b69c2b068fc378daa952ba7f163c4a11628f55a4df523b3ef60405160405180910390a4809150509392505050565b600073ffffffffffffffffffffffffffffffffffffffff168273ffffffffffffffffffffffffffffffffffffffff1603610e6e5760006040517f64a0ae92000000000000000000000000000000000000000000000000000000008152600401610e659190611c75565b60405180910390fd5b6000610e7c83836000610be2565b9050600073ffffffffffffffffffffffffffffffffffffffff168173ffffffffffffffffffffffffffffffffffffffff1614610ef05760006040517f73c6ac6e000000000000000000000000000000000000000000000000000000008152600401610ee79190611c75565b60405180910390fd5b505050565b80600660008481526020019081526020016000209081610f15919061240e565b507ff8e1a15aba9398e019f0b49df1a4fde98ee17ae345cb5f6b5e2c27f5033e8ce782604051610f459190611edc565b60405180910390a15050565b610f59610bc8565b73ffffffffffffffffffffffffffffffffffffffff16610f776106fd565b73ffffffffffffffffffffffffffffffffffffffff1614610fd657610f9a610bc8565b6040517f118cdaa7000000000000000000000000000000000000000000000000000000008152600401610fcd9190611c75565b60405180910390fd5b565b6000600760009054906101000a900473ffffffffffffffffffffffffffffffffffffffff16905081600760006101000a81548173ffffffffffffffffffffffffffffffffffffffff021916908373ffffffffffffffffffffffffffffffffffffffff1602179055508173ffffffffffffffffffffffffffffffffffffffff168173ffffffffffffffffffffffffffffffffffffffff167f8be0079c531659141344cd1fd0a4f28419497f9722a3daafe3b4186f6b6457e060405160405180910390a35050565b600073ffffffffffffffffffffffffffffffffffffffff168273ffffffffffffffffffffffffffffffffffffffff160361110f57816040517f5b08ba180000000000000000000000000000000000000000000000000000000081526004016111069190611c75565b60405180910390fd5b80600560008573ffffffffffffffffffffffffffffffffffffffff1673ffffffffffffffffffffffffffffffffffffffff16815260200190815260200160002060008473ffffffffffffffffffffffffffffffffffffffff1673ffffffffffffffffffffffffffffffffffffffff16815260200190815260200160002060006101000a81548160ff0219169083151502179055508173ffffffffffffffffffffffffffffffffffffffff168373ffffffffffffffffffffffffffffffffffffffff167f17307eab39ab6107e8899845ad3d59bd9653f200f220920489ca2b5937696c31836040516112009190611b04565b60405180910390a3505050565b60008373ffffffffffffffffffffffffffffffffffffffff163b11156113b7578273ffffffffffffffffffffffffffffffffffffffff1663150b7a02868685856040518563ffffffff1660e01b815260040161126c9493929190612535565b6020604051808303816000875af19250505080156112a857506040513d601f19601f820116820180604052508101906112a59190612596565b60015b61132c573d80600081146112d8576040519150601f19603f3d011682016040523d82523d6000602084013e6112dd565b606091505b50600081510361132457836040517f64a0ae9200000000000000000000000000000000000000000000000000000000815260040161131b9190611c75565b60405180910390fd5b805160208201fd5b63150b7a0260e01b7bffffffffffffffffffffffffffffffffffffffffffffffffffffffff1916817bffffffffffffffffffffffffffffffffffffffffffffffffffffffff1916146113b557836040517f64a0ae920000000000000000000000000000000000000000000000000000000081526004016113ac9190611c75565b60405180910390fd5b505b5050505050565b606060405180602001604052806000815250905090565b60606113e082610b03565b5060006113eb6113be565b9050600081511161140b5760405180602001604052806000815250611436565b806114158461176e565b60405160200161142692919061223e565b6040516020818303038152906040525b915050919050565b60007f01ffc9a7000000000000000000000000000000000000000000000000000000007bffffffffffffffffffffffffffffffffffffffffffffffffffffffff1916827bffffffffffffffffffffffffffffffffffffffffffffffffffffffff1916149050919050565b60006002600083815260200190815260200160002060009054906101000a900473ffffffffffffffffffffffffffffffffffffffff169050919050565b808061151e5750600073ffffffffffffffffffffffffffffffffffffffff168273ffffffffffffffffffffffffffffffffffffffff1614155b1561165257600061152e84610b03565b9050600073ffffffffffffffffffffffffffffffffffffffff168373ffffffffffffffffffffffffffffffffffffffff161415801561159957508273ffffffffffffffffffffffffffffffffffffffff168173ffffffffffffffffffffffffffffffffffffffff1614155b80156115ac57506115aa8184610907565b155b156115ee57826040517fa9fbf51f0000000000000000000000000000000000000000000000000000000081526004016115e59190611c75565b60405180910390fd5b811561165057838573ffffffffffffffffffffffffffffffffffffffff168273ffffffffffffffffffffffffffffffffffffffff167f8c5be1e5ebec7d5bd14f71427d1e84f3dd0314c0f7b2291e5b200ac8c7c3b92560405160405180910390a45b505b836004600085815260200190815260200160002060006101000a81548173ffffffffffffffffffffffffffffffffffffffff021916908373ffffffffffffffffffffffffffffffffffffffff16021790555050505050565b6116b583838361183c565b61176957600073ffffffffffffffffffffffffffffffffffffffff168373ffffffffffffffffffffffffffffffffffffffff160361172a57806040517f7e2732890000000000000000000000000000000000000000000000000000000081526004016117219190611edc565b60405180910390fd5b81816040517f177e802f0000000000000000000000000000000000000000000000000000000081526004016117609291906125c3565b60405180910390fd5b505050565b60606000600161177d846118fd565b01905060008167ffffffffffffffff81111561179c5761179b611d59565b5b6040519080825280601f01601f1916602001820160405280156117ce5781602001600182028036833780820191505090505b509050600082602083010190505b600115611831578080600190039150507f3031323334353637383961626364656600000000000000000000000000000000600a86061a8153600a8581611825576118246125ec565b5b049450600085036117dc575b819350505050919050565b60008073ffffffffffffffffffffffffffffffffffffffff168373ffffffffffffffffffffffffffffffffffffffff16141580156118f457508273ffffffffffffffffffffffffffffffffffffffff168473ffffffffffffffffffffffffffffffffffffffff1614806118b557506118b48484610907565b5b806118f357508273ffffffffffffffffffffffffffffffffffffffff166118db83610b8b565b73ffffffffffffffffffffffffffffffffffffffff16145b5b90509392505050565b600080600090507a184f03e93ff9f4daa797ed6e38ed64bf6a1f010000000000000000831061195b577a184f03e93ff9f4daa797ed6e38ed64bf6a1f0100000000000000008381611951576119506125ec565b5b0492506040810190505b6d04ee2d6d415b85acef81000000008310611998576d04ee2d6d415b85acef8100000000838161198e5761198d6125ec565b5b0492506020810190505b662386f26fc1000083106119c757662386f26fc1000083816119bd576119bc6125ec565b5b0492506010810190505b6305f5e10083106119f0576305f5e10083816119e6576119e56125ec565b5b0492506008810190505b6127108310611a15576127108381611a0b57611a0a6125ec565b5b0492506004810190505b60648310611a385760648381611a2e57611a2d6125ec565b5b0492506002810190505b600a8310611a47576001810190505b80915050919050565b6000604051905090565b600080fd5b600080fd5b60007fffffffff0000000000000000000000000000000000000000000000000000000082169050919050565b611a9981611a64565b8114611aa457600080fd5b50565b600081359050611ab681611a90565b92915050565b600060208284031215611ad257611ad1611a5a565b5b6000611ae084828501611aa7565b91505092915050565b60008115159050919050565b611afe81611ae9565b82525050565b6000602082019050611b196000830184611af5565b92915050565b600081519050919050565b600082825260208201905092915050565b60005b83811015611b59578082015181840152602081019050611b3e565b60008484015250505050565b6000601f19601f8301169050919050565b6000611b8182611b1f565b611b8b8185611b2a565b9350611b9b818560208601611b3b565b611ba481611b65565b840191505092915050565b60006020820190508181036000830152611bc98184611b76565b905092915050565b6000819050919050565b611be481611bd1565b8114611bef57600080fd5b50565b600081359050611c0181611bdb565b92915050565b600060208284031215611c1d57611c1c611a5a565b5b6000611c2b84828501611bf2565b91505092915050565b600073ffffffffffffffffffffffffffffffffffffffff82169050919050565b6000611c5f82611c34565b9050919050565b611c6f81611c54565b82525050565b6000602082019050611c8a6000830184611c66565b92915050565b611c9981611c54565b8114611ca457600080fd5b50565b600081359050611cb681611c90565b92915050565b60008060408385031215611cd357611cd2611a5a565b5b6000611ce185828601611ca7565b9250506020611cf285828601611bf2565b9150509250929050565b600080600060608486031215611d1557611d14611a5a565b5b6000611d2386828701611ca7565b9350506020611d3486828701611ca7565b9250506040611d4586828701611bf2565b9150509250925092565b600080fd5b600080fd5b7f4e487b7100000000000000000000000000000000000000000000000000000000600052604160045260246000fd5b611d9182611b65565b810181811067ffffffffffffffff82111715611db057611daf611d59565b5b80604052505050565b6000611dc3611a50565b9050611dcf8282611d88565b919050565b600067ffffffffffffffff821115611def57611dee611d59565b5b611df882611b65565b9050602081019050919050565b82818337600083830152505050565b6000611e27611e2284611dd4565b611db9565b905082815260208101848484011115611e4357611e42611d54565b5b611e4e848285611e05565b509392505050565b600082601f830112611e6b57611e6a611d4f565b5b8135611e7b848260208601611e14565b91505092915050565b600060208284031215611e9a57611e99611a5a565b5b600082013567ffffffffffffffff811115611eb857611eb7611a5f565b5b611ec484828501611e56565b91505092915050565b611ed681611bd1565b82525050565b6000602082019050611ef16000830184611ecd565b92915050565b600060208284031215611f0d57611f0c611a5a565b5b6000611f1b84828501611ca7565b91505092915050565b611f2d81611ae9565b8114611f3857600080fd5b50565b600081359050611f4a81611f24565b92915050565b60008060408385031215611f6757611f66611a5a565b5b6000611f7585828601611ca7565b9250506020611f8685828601611f3b565b9150509250929050565b600067ffffffffffffffff821115611fab57611faa611d59565b5b611fb482611b65565b9050602081019050919050565b6000611fd4611fcf84611f90565b611db9565b905082815260208101848484011115611ff057611fef611d54565b5b611ffb848285611e05565b509392505050565b600082601f83011261201857612017611d4f565b5b8135612028848260208601611fc1565b91505092915050565b6000806000806080858703121561204b5761204a611a5a565b5b600061205987828801611ca7565b945050602061206a87828801611ca7565b935050604061207b87828801611bf2565b925050606085013567ffffffffffffffff81111561209c5761209b611a5f565b5b6120a887828801612003565b91505092959194509250565b600080604083850312156120cb576120ca611a5a565b5b60006120d985828601611ca7565b92505060206120ea85828601611ca7565b9150509250929050565b7f4e487b7100000000000000000000000000000000000000000000000000000000600052602260045260246000fd5b6000600282049050600182168061213b57607f821691505b60208210810361214e5761214d6120f4565b5b50919050565b60006060820190506121696000830186611c66565b6121766020830185611ecd565b6121836040830184611c66565b949350505050565b7f4e487b7100000000000000000000000000000000000000000000000000000000600052601160045260246000fd5b60006121c582611bd1565b91507fffffffffffffffffffffffffffffffffffffffffffffffffffffffffffffffff82036121f7576121f661218b565b5b600182019050919050565b600081905092915050565b600061221882611b1f565b6122228185612202565b9350612232818560208601611b3b565b80840191505092915050565b600061224a828561220d565b9150612256828461220d565b91508190509392505050565b60008190508160005260206000209050919050565b60006020601f8301049050919050565b600082821b905092915050565b6000600883026122c47fffffffffffffffffffffffffffffffffffffffffffffffffffffffffffffffff82612287565b6122ce8683612287565b95508019841693508086168417925050509392505050565b6000819050919050565b600061230b61230661230184611bd1565b6122e6565b611bd1565b9050919050565b6000819050919050565b612325836122f0565b61233961233182612312565b848454612294565b825550505050565b600090565b61234e612341565b61235981848461231c565b505050565b5b8181101561237d57612372600082612346565b60018101905061235f565b5050565b601f8211156123c25761239381612262565b61239c84612277565b810160208510156123ab578190505b6123bf6123b785612277565b83018261235e565b50505b505050565b600082821c905092915050565b60006123e5600019846008026123c7565b1980831691505092915050565b60006123fe83836123d4565b9150826002028217905092915050565b61241782611b1f565b67ffffffffffffffff8111156124305761242f611d59565b5b61243a8254612123565b612445828285612381565b600060209050601f8311600181146124785760008415612466578287015190505b61247085826123f2565b8655506124d8565b601f19841661248686612262565b60005b828110156124ae57848901518255600182019150602085019450602081019050612489565b868310156124cb57848901516124c7601f8916826123d4565b8355505b6001600288020188555050505b505050505050565b600081519050919050565b600082825260208201905092915050565b6000612507826124e0565b61251181856124eb565b9350612521818560208601611b3b565b61252a81611b65565b840191505092915050565b600060808201905061254a6000830187611c66565b6125576020830186611c66565b6125646040830185611ecd565b818103606083015261257681846124fc565b905095945050505050565b60008151905061259081611a90565b92915050565b6000602082840312156125ac576125ab611a5a565b5b60006125ba84828501612581565b91505092915050565b60006040820190506125d86000830185611c66565b6125e56020830184611ecd565b9392505050565b7f4e487b7100000000000000000000000000000000000000000000000000000000600052601260045260246000fdfea2646970667358221220aa6170c1bcf9886fad8ea59268f98eeb81bf59fdd0a2925df52f255cd856b38064736f6c63430008140033",
  "linkReferences": {},
  "deployedLinkReferences": {}
}