{
  "_format": "hh-sol-artifact-1",
  "contractName": "NFT",
  "sourceName": "contracts/NFT.sol",
  "abi": [
    {
      "inputs": [
        {
          "internalType": "address",
          "name": "marketplaceAddress",
          "type": "address"
        }
      ],
      "stateMutability": "nonpayable",
      "type": "constructor"
    },
    {
      "inputs": [
        {
          "internalType": "address",
          "name": "sender",
          "type": "address"
        },
        {
          "internalType": "uint256",
          "name": "tokenId",
          "type": "uint256"
        },
        {
          "internalType": "address",
          "name": "owner",
          "type": "address"
        }
      ],
      "name": "ERC721IncorrectOwner",
      "type": "error"
    },
    {
      "inputs": [
        {
          "internalType": "address",
          "name": "operator",
          "type": "address"
        },
        {
          "internalType": "uint256",
          "name": "tokenId",
          "type": "uint256"
        }
      ],
      "name": "ERC721InsufficientApproval",
      "type": "error"
    },
    {
      "inputs": [
        {
          "internalType": "address",
          "name": "approver",
          "type": "address"
        }
      ],
      "name": "ERC721InvalidApprover",
      "type": "error"
    },
    {
      "inputs": [
        {
          "internalType": "address",
          "name": "operator",
          "type": "address"
        }
      ],
      "name": "ERC721InvalidOperator",
      "type": "error"
    },
    {
      "inputs": [
        {
          "internalType": "address",
          "name": "owner",
          "type": "address"
        }
      ],
      "name": "ERC721InvalidOwner",
      "type": "error"
    },
    {
      "inputs": [
        {
          "internalType": "address",
          "name": "receiver",
          "type": "address"
        }
      ],
      "name": "ERC721InvalidReceiver",
      "type": "error"
    },
    {
      "inputs": [
        {
          "internalType": "address",
          "name": "sender",
          "type": "address"
        }
      ],
      "name": "ERC721InvalidSender",
      "type": "error"
    },
    {
      "inputs": [
        {
          "internalType": "uint256",
          "name": "tokenId",
          "type": "uint256"
        }
      ],
      "name": "ERC721NonexistentToken",
      "type": "error"
    },
    {
      "inputs": [
        {
          "internalType": "address",
          "name": "owner",
          "type": "address"
        }
      ],
      "name": "OwnableInvalidOwner",
      "type": "error"
    },
    {
      "inputs": [
        {
          "internalType": "address",
          "name": "account",
          "type": "address"
        }
      ],
      "name": "OwnableUnauthorizedAccount",
      "type": "error"
    },
    {
      "anonymous": false,
      "inputs": [
        {
          "indexed": true,
          "internalType": "address",
          "name": "owner",
          "type": "address"
        },
        {
          "indexed": true,
          "internalType": "address",
          "name": "approved",
          "type": "address"
        },
        {
          "indexed": true,
          "internalType": "uint256",
          "name": "tokenId",
          "type": "uint256"
        }
      ],
      "name": "Approval",
      "type": "event"
    },
    {
      "anonymous": false,
      "inputs": [
        {
          "indexed": true,
          "internalType": "address",
          "name": "owner",
          "type": "address"
        },
        {
          "indexed": true,
          "internalType": "address",
          "name": "operator",
          "type": "address"
        },
        {
          "indexed": false,
          "internalType": "bool",
          "name": "approved",
          "type": "bool"
        }
      ],
      "name": "ApprovalForAll",
      "type": "event"
    },
    {
      "anonymous": false,
      "inputs": [
        {
          "indexed": false,
          "internalType": "uint256",
          "name": "_fromTokenId",
          "type": "uint256"
        },
        {
          "indexed": false,
          "internalType": "uint256",
          "name": "_toTokenId",
          "type": "uint256"
        }
      ],
      "name": "BatchMetadataUpdate",
      "type": "event"
    },
    {
      "anonymous": false,
      "inputs": [
        {
          "indexed": false,
          "internalType": "uint256",
          "name": "_tokenId",
          "type": "uint256"
        }
      ],
      "name": "MetadataUpdate",
      "type": "event"
    },
    {
      "anonymous": false,
      "inputs": [
        {
          "indexed": true,
          "internalType": "address",
          "name": "previousOwner",
          "type": "address"
        },
        {
          "indexed": true,
          "internalType": "address",
          "name": "newOwner",
          "type": "address"
        }
      ],
      "name": "OwnershipTransferred",
      "type": "event"
    },
    {
      "anonymous": false,
      "inputs": [
        {
          "indexed": true,
          "internalType": "address",
          "name": "from",
          "type": "address"
        },
        {
          "indexed": true,
          "internalType": "address",
          "name": "to",
          "type": "address"
        },
        {
          "indexed": true,
          "internalType": "uint256",
          "name": "tokenId",
          "type": "uint256"
        }
      ],
      "name": "Transfer",
      "type": "event"
    },
    {
      "inputs": [
        {
          "internalType": "address",
          "name": "to",
          "type": "address"
        },
        {
          "internalType": "uint256",
          "name": "tokenId",
          "type": "uint256"
        }
      ],
      "name": "approve",
      "outputs": [],
      "stateMutability": "nonpayable",
      "type": "function"
    },
    {
      "inputs": [
        {
          "internalType": "address",
          "name": "owner",
          "type": "address"
        }
      ],
      "name": "balanceOf",
      "outputs": [
        {
          "internalType": "uint256",
          "name": "",
          "type": "uint256"
        }
      ],
      "stateMutability": "view",
      "type": "function"
    },
    {
      "inputs": [
        {
          "internalType": "string",
          "name": "tokenURI",
          "type": "string"
        }
      ],
      "name": "createToken",
      "outputs": [
        {
          "internalType": "uint256",
          "name": "",
          "type": "uint256"
        }
      ],
      "stateMutability": "nonpayable",
      "type": "function"
    },
    {
      "inputs": [
        {
          "internalType": "uint256",
          "name": "tokenId",
          "type": "uint256"
        }
      ],
      "name": "getApproved",
      "outputs": [
        {
          "internalType": "address",
          "name": "",
          "type": "address"
        }
      ],
      "stateMutability": "view",
      "type": "function"
    },
    {
      "inputs": [
        {
          "internalType": "address",
          "name": "owner",
          "type": "address"
        },
        {
          "internalType": "address",
          "name": "operator",
          "type": "address"
        }
      ],
      "name": "isApprovedForAll",
      "outputs": [
        {
          "internalType": "bool",
          "name": "",
          "type": "bool"
        }
      ],
      "stateMutability": "view",
      "type": "function"
    },
    {
      "inputs": [],
      "name": "name",
      "outputs": [
        {
          "internalType": "string",
          "name": "",
          "type": "string"
        }
      ],
      "stateMutability": "view",
      "type": "function"
    },
    {
      "inputs": [],
      "name": "owner",
      "outputs": [
        {
          "internalType": "address",
          "name": "",
          "type": "address"
        }
      ],
      "stateMutability": "view",
      "type": "function"
    },
    {
      "inputs": [
        {
          "internalType": "uint256",
          "name": "tokenId",
          "type": "uint256"
        }
      ],
      "name": "ownerOf",
      "outputs": [
        {
          "internalType": "address",
          "name": "",
          "type": "address"
        }
      ],
      "stateMutability": "view",
      "type": "function"
    },
    {
      "inputs": [],
      "name": "renounceOwnership",
      "outputs": [],
      "stateMutability": "nonpayable",
      "type": "function"
    },
    {
      "inputs": [
        {
          "internalType": "address",
          "name": "from",
          "type": "address"
        },
        {
          "internalType": "address",
          "name": "to",
          "type": "address"
        },
        {
          "internalType": "uint256",
          "name": "tokenId",
          "type": "uint256"
        }
      ],
      "name": "safeTransferFrom",
      "outputs": [],
      "stateMutability": "nonpayable",
      "type": "function"
    },
    {
      "inputs": [
        {
          "internalType": "address",
          "name": "from",
          "type": "address"
        },
        {
          "internalType": "address",
          "name": "to",
          "type": "address"
        },
        {
          "internalType": "uint256",
          "name": "tokenId",
          "type": "uint256"
        },
        {
          "internalType": "bytes",
          "name": "data",
          "type": "bytes"
        }
      ],
      "name": "safeTransferFrom",
      "outputs": [],
      "stateMutability": "nonpayable",
      "type": "function"
    },
    {
      "inputs": [
        {
          "internalType": "address",
          "name": "operator",
          "type": "address"
        },
        {
          "internalType": "bool",
          "name": "approved",
          "type": "bool"
        }
      ],
      "name": "setApprovalForAll",
      "outputs": [],
      "stateMutability": "nonpayable",
      "type": "function"
    },
    {
      "inputs": [
        {
          "internalType": "bytes4",
          "name": "interfaceId",
          "type": "bytes4"
        }
      ],
      "name": "supportsInterface",
      "outputs": [
        {
          "internalType": "bool",
          "name": "",
          "type": "bool"
        }
      ],
      "stateMutability": "view",
      "type": "function"
    },
    {
      "inputs": [],
      "name": "symbol",
      "outputs": [
        {
          "internalType": "string",
          "name": "",
          "type": "string"
        }
      ],
      "stateMutability": "view",
      "type": "function"
    },
    {
      "inputs": [
        {
          "internalType": "uint256",
          "name": "tokenId",
          "type": "uint256"
        }
      ],
      "name": "tokenURI",
      "outputs": [
        {
          "internalType": "string",
          "name": "",
          "type": "string"
        }
      ],
      "stateMutability": "view",
      "type": "function"
    },
    {
      "inputs": [
        {
          "internalType": "address",
          "name": "from",
          "type": "address"
        },
        {
          "internalType": "address",
          "name": "to",
          "type": "address"
        },
        {
          "internalType": "uint256",
          "name": "tokenId",
          "type": "uint256"
        }
      ],
      "name": "transferFrom",
      "outputs": [],
      "stateMutability": "nonpayable",
      "type": "function"
    },
    {
      "inputs": [
        {
          "internalType": "address",
          "name": "newOwner",
          "type": "address"
        }
      ],
      "name": "transferOwnership",
      "outputs": [],
      "stateMutability": "nonpayable",
      "type": "function"
    }
  ],
  "bytecode": "0x60806040523480156200001157600080fd5b50604051620016e8380380620016e8833981016040819052620000349162000151565b336040518060400160405280601081526020016f4d657461766572736520546f6b656e7360801b815250604051806040016040528060048152602001631351551560e21b81525081600090816200008c919062000228565b5060016200009b828262000228565b5050506001600160a01b038116620000cd57604051631e4fbdf760e01b81526000600482015260240160405180910390fd5b620000d881620000ff565b50600980546001600160a01b0319166001600160a01b0392909216919091179055620002f4565b600780546001600160a01b038381166001600160a01b0319831681179093556040519116919082907f8be0079c531659141344cd1fd0a4f28419497f9722a3daafe3b4186f6b6457e090600090a35050565b6000602082840312156200016457600080fd5b81516001600160a01b03811681146200017c57600080fd5b9392505050565b634e487b7160e01b600052604160045260246000fd5b600181811c90821680620001ae57607f821691505b602082108103620001cf57634e487b7160e01b600052602260045260246000fd5b50919050565b601f8211156200022357600081815260208120601f850160051c81016020861015620001fe5750805b601f850160051c820191505b818110156200021f578281556001016200020a565b5050505b505050565b81516001600160401b0381111562000244576200024462000183565b6200025c8162000255845462000199565b84620001d5565b602080601f8311600181146200029457600084156200027b5750858301515b600019600386901b1c1916600185901b1785556200021f565b600085815260208120601f198616915b82811015620002c557888601518255948401946001909101908401620002a4565b5085821015620002e45787850151600019600388901b60f8161c191681555b5050505050600190811b01905550565b6113e480620003046000396000f3fe608060405234801561001057600080fd5b506004361061010b5760003560e01c806370a08231116100a2578063a22cb46511610071578063a22cb4651461021b578063b88d4fde1461022e578063c87b56dd14610241578063e985e9c514610254578063f2fde38b1461026757600080fd5b806370a08231146101e7578063715018a6146101fa5780638da5cb5b1461020257806395d89b411461021357600080fd5b806323b872dd116100de57806323b872dd1461018d57806342842e0e146101a057806345576f94146101b35780636352211e146101d457600080fd5b806301ffc9a71461011057806306fdde0314610138578063081812fc1461014d578063095ea7b314610178575b600080fd5b61012361011e366004610ec8565b61027a565b60405190151581526020015b60405180910390f35b6101406102a5565b60405161012f9190610f35565b61016061015b366004610f48565b610337565b6040516001600160a01b03909116815260200161012f565b61018b610186366004610f7d565b610360565b005b61018b61019b366004610fa7565b61036f565b61018b6101ae366004610fa7565b6103ff565b6101c66101c136600461106f565b61041f565b60405190815260200161012f565b6101606101e2366004610f48565b610462565b6101c66101f53660046110b8565b61046d565b61018b6104b5565b6007546001600160a01b0316610160565b6101406104c9565b61018b6102293660046110d3565b6104d8565b61018b61023c36600461110f565b6104e3565b61014061024f366004610f48565b6104fb565b61012361026236600461118b565b61060c565b61018b6102753660046110b8565b61063a565b60006001600160e01b03198216632483248360e11b148061029f575061029f82610678565b92915050565b6060600080546102b4906111be565b80601f01602080910402602001604051908101604052809291908181526020018280546102e0906111be565b801561032d5780601f106103025761010080835404028352916020019161032d565b820191906000526020600020905b81548152906001019060200180831161031057829003601f168201915b5050505050905090565b6000610342826106c8565b506000828152600460205260409020546001600160a01b031661029f565b61036b828233610701565b5050565b6001600160a01b03821661039e57604051633250574960e11b8152600060048201526024015b60405180910390fd5b60006103ab83833361070e565b9050836001600160a01b0316816001600160a01b0316146103f9576040516364283d7b60e01b81526001600160a01b0380861660048301526024820184905282166044820152606401610395565b50505050565b61041a838383604051806020016040528060008152506104e3565b505050565b60088054600091819083610432836111f8565b91905055506104413382610807565b61044b818461086c565b60095461029f906001600160a01b031660016104d8565b600061029f826106c8565b60006001600160a01b038216610499576040516322718ad960e21b815260006004820152602401610395565b506001600160a01b031660009081526003602052604090205490565b6104bd6108bc565b6104c760006108e9565b565b6060600180546102b4906111be565b61036b33838361093b565b6104ee84848461036f565b6103f933858585856109da565b6060610506826106c8565b5060008281526006602052604081208054610520906111be565b80601f016020809104026020016040519081016040528092919081815260200182805461054c906111be565b80156105995780601f1061056e57610100808354040283529160200191610599565b820191906000526020600020905b81548152906001019060200180831161057c57829003601f168201915b5050505050905060006105b760408051602081019091526000815290565b905080516000036105c9575092915050565b8151156105fb5780826040516020016105e392919061121f565b60405160208183030381529060405292505050919050565b61060484610b05565b949350505050565b6001600160a01b03918216600090815260056020908152604080832093909416825291909152205460ff1690565b6106426108bc565b6001600160a01b03811661066c57604051631e4fbdf760e01b815260006004820152602401610395565b610675816108e9565b50565b60006001600160e01b031982166380ac58cd60e01b14806106a957506001600160e01b03198216635b5e139f60e01b145b8061029f57506301ffc9a760e01b6001600160e01b031983161461029f565b6000818152600260205260408120546001600160a01b03168061029f57604051637e27328960e01b815260048101849052602401610395565b61041a8383836001610b7a565b6000828152600260205260408120546001600160a01b039081169083161561073b5761073b818486610c80565b6001600160a01b0381161561077957610758600085600080610b7a565b6001600160a01b038116600090815260036020526040902080546000190190555b6001600160a01b038516156107a8576001600160a01b0385166000908152600360205260409020805460010190555b60008481526002602052604080822080546001600160a01b0319166001600160a01b0389811691821790925591518793918516917fddf252ad1be2c89b69c2b068fc378daa952ba7f163c4a11628f55a4df523b3ef91a4949350505050565b6001600160a01b03821661083157604051633250574960e11b815260006004820152602401610395565b600061083f8383600061070e565b90506001600160a01b0381161561041a576040516339e3563760e11b815260006004820152602401610395565b60008281526006602052604090206108848282611294565b506040518281527ff8e1a15aba9398e019f0b49df1a4fde98ee17ae345cb5f6b5e2c27f5033e8ce79060200160405180910390a15050565b6007546001600160a01b031633146104c75760405163118cdaa760e01b8152336004820152602401610395565b600780546001600160a01b038381166001600160a01b0319831681179093556040519116919082907f8be0079c531659141344cd1fd0a4f28419497f9722a3daafe3b4186f6b6457e090600090a35050565b6001600160a01b03821661096d57604051630b61174360e31b81526001600160a01b0383166004820152602401610395565b6001600160a01b03838116600081815260056020908152604080832094871680845294825291829020805460ff191686151590811790915591519182527f17307eab39ab6107e8899845ad3d59bd9653f200f220920489ca2b5937696c31910160405180910390a3505050565b6001600160a01b0383163b15610afe57604051630a85bd0160e11b81526001600160a01b0384169063150b7a0290610a1c908890889087908790600401611354565b6020604051808303816000875af1925050508015610a57575060408051601f3d908101601f19168201909252610a5491810190611391565b60015b610ac0573d808015610a85576040519150601f19603f3d011682016040523d82523d6000602084013e610a8a565b606091505b508051600003610ab857604051633250574960e11b81526001600160a01b0385166004820152602401610395565b805160208201fd5b6001600160e01b03198116630a85bd0160e11b14610afc57604051633250574960e11b81526001600160a01b0385166004820152602401610395565b505b5050505050565b6060610b10826106c8565b506000610b2860408051602081019091526000815290565b90506000815111610b485760405180602001604052806000815250610b73565b80610b5284610ce4565b604051602001610b6392919061121f565b6040516020818303038152906040525b9392505050565b8080610b8e57506001600160a01b03821615155b15610c50576000610b9e846106c8565b90506001600160a01b03831615801590610bca5750826001600160a01b0316816001600160a01b031614155b8015610bdd5750610bdb818461060c565b155b15610c065760405163a9fbf51f60e01b81526001600160a01b0384166004820152602401610395565b8115610c4e5783856001600160a01b0316826001600160a01b03167f8c5be1e5ebec7d5bd14f71427d1e84f3dd0314c0f7b2291e5b200ac8c7c3b92560405160405180910390a45b505b5050600090815260046020526040902080546001600160a01b0319166001600160a01b0392909216919091179055565b610c8b838383610d77565b61041a576001600160a01b038316610cb957604051637e27328960e01b815260048101829052602401610395565b60405163177e802f60e01b81526001600160a01b038316600482015260248101829052604401610395565b60606000610cf183610dda565b600101905060008167ffffffffffffffff811115610d1157610d11610fe3565b6040519080825280601f01601f191660200182016040528015610d3b576020820181803683370190505b5090508181016020015b600019016f181899199a1a9b1b9c1cb0b131b232b360811b600a86061a8153600a8504945084610d4557509392505050565b60006001600160a01b038316158015906106045750826001600160a01b0316846001600160a01b03161480610db15750610db1848461060c565b806106045750506000908152600460205260409020546001600160a01b03908116911614919050565b60008072184f03e93ff9f4daa797ed6e38ed64bf6a1f0160401b8310610e195772184f03e93ff9f4daa797ed6e38ed64bf6a1f0160401b830492506040015b6d04ee2d6d415b85acef81000000008310610e45576d04ee2d6d415b85acef8100000000830492506020015b662386f26fc100008310610e6357662386f26fc10000830492506010015b6305f5e1008310610e7b576305f5e100830492506008015b6127108310610e8f57612710830492506004015b60648310610ea1576064830492506002015b600a831061029f5760010192915050565b6001600160e01b03198116811461067557600080fd5b600060208284031215610eda57600080fd5b8135610b7381610eb2565b60005b83811015610f00578181015183820152602001610ee8565b50506000910152565b60008151808452610f21816020860160208601610ee5565b601f01601f19169290920160200192915050565b602081526000610b736020830184610f09565b600060208284031215610f5a57600080fd5b5035919050565b80356001600160a01b0381168114610f7857600080fd5b919050565b60008060408385031215610f9057600080fd5b610f9983610f61565b946020939093013593505050565b600080600060608486031215610fbc57600080fd5b610fc584610f61565b9250610fd360208501610f61565b9150604084013590509250925092565b634e487b7160e01b600052604160045260246000fd5b600067ffffffffffffffff8084111561101457611014610fe3565b604051601f8501601f19908116603f0116810190828211818310171561103c5761103c610fe3565b8160405280935085815286868601111561105557600080fd5b858560208301376000602087830101525050509392505050565b60006020828403121561108157600080fd5b813567ffffffffffffffff81111561109857600080fd5b8201601f810184136110a957600080fd5b61060484823560208401610ff9565b6000602082840312156110ca57600080fd5b610b7382610f61565b600080604083850312156110e657600080fd5b6110ef83610f61565b91506020830135801515811461110457600080fd5b809150509250929050565b6000806000806080858703121561112557600080fd5b61112e85610f61565b935061113c60208601610f61565b925060408501359150606085013567ffffffffffffffff81111561115f57600080fd5b8501601f8101871361117057600080fd5b61117f87823560208401610ff9565b91505092959194509250565b6000806040838503121561119e57600080fd5b6111a783610f61565b91506111b560208401610f61565b90509250929050565b600181811c908216806111d257607f821691505b6020821081036111f257634e487b7160e01b600052602260045260246000fd5b50919050565b60006001820161121857634e487b7160e01b600052601160045260246000fd5b5060010190565b60008351611231818460208801610ee5565b835190830190611245818360208801610ee5565b01949350505050565b601f82111561041a57600081815260208120601f850160051c810160208610156112755750805b601f850160051c820191505b81811015610afc57828155600101611281565b815167ffffffffffffffff8111156112ae576112ae610fe3565b6112c2816112bc84546111be565b8461124e565b602080601f8311600181146112f757600084156112df5750858301515b600019600386901b1c1916600185901b178555610afc565b600085815260208120601f198616915b8281101561132657888601518255948401946001909101908401611307565b50858210156113445787850151600019600388901b60f8161c191681555b5050505050600190811b01905550565b6001600160a01b038581168252841660208201526040810183905260806060820181905260009061138790830184610f09565b9695505050505050565b6000602082840312156113a357600080fd5b8151610b7381610eb256fea264697066735822122020eda165517cc4ee97e3b887fe61feb7b2b157ab187078f10fe6dff27e0c710c64736f6c63430008140033",
  "linkReferences": {},
  "deployedLinkReferences": {}
}