{
  "_format": "hh-sol-artifact-1",
  "contractName": "NFTMarket",
  "sourceName": "contracts/NFTMarket.sol",
  "abi": [
    {
      "inputs": [],
      "stateMutability": "nonpayable",
      "type": "constructor"
    },
    {
      "inputs": [
        {
          "internalType": "address",
          "name": "owner",
          "type": "address"
        }
      ],
      "name": "OwnableInvalidOwner",
      "type": "error"
    },
    {
      "inputs": [
        {
          "internalType": "address",
          "name": "account",
          "type": "address"
        }
      ],
      "name": "OwnableUnauthorizedAccount",
      "type": "error"
    },
    {
      "inputs": [],
      "name": "ReentrancyGuardReentrantCall",
      "type": "error"
    },
    {
      "anonymous": false,
      "inputs": [
        {
          "indexed": true,
          "internalType": "uint256",
          "name": "itemId",
          "type": "uint256"
        },
        {
          "indexed": true,
          "internalType": "address",
          "name": "nftContract",
          "type": "address"
        },
        {
          "indexed": true,
          "internalType": "uint256",
          "name": "tokenId",
          "type": "uint256"
        },
        {
          "indexed": false,
          "internalType": "address",
          "name": "seller",
          "type": "address"
        },
        {
          "indexed": false,
          "internalType": "address",
          "name": "owner",
          "type": "address"
        },
        {
          "indexed": false,
          "internalType": "uint256",
          "name": "price",
          "type": "uint256"
        },
        {
          "indexed": false,
          "internalType": "bool",
          "name": "sold",
          "type": "bool"
        }
      ],
      "name": "MarketItemCreated",
      "type": "event"
    },
    {
      "anonymous": false,
      "inputs": [
        {
          "indexed": true,
          "internalType": "address",
          "name": "previousOwner",
          "type": "address"
        },
        {
          "indexed": true,
          "internalType": "address",
          "name": "newOwner",
          "type": "address"
        }
      ],
      "name": "OwnershipTransferred",
      "type": "event"
    },
    {
      "inputs": [
        {
          "internalType": "address",
          "name": "nftContract",
          "type": "address"
        },
        {
          "internalType": "uint256",
          "name": "tokenId",
          "type": "uint256"
        },
        {
          "internalType": "uint256",
          "name": "price",
          "type": "uint256"
        }
      ],
      "name": "createMarketItem",
      "outputs": [],
      "stateMutability": "payable",
      "type": "function"
    },
    {
      "inputs": [
        {
          "internalType": "address",
          "name": "nftContract",
          "type": "address"
        },
        {
          "internalType": "uint256",
          "name": "itemId",
          "type": "uint256"
        }
      ],
      "name": "createMarketSale",
      "outputs": [],
      "stateMutability": "payable",
      "type": "function"
    },
    {
      "inputs": [],
      "name": "fetchItemsCreated",
      "outputs": [
        {
          "components": [
            {
              "internalType": "uint256",
              "name": "itemId",
              "type": "uint256"
            },
            {
              "internalType": "address",
              "name": "nftContract",
              "type": "address"
            },
            {
              "internalType": "uint256",
              "name": "tokenId",
              "type": "uint256"
            },
            {
              "internalType": "address payable",
              "name": "seller",
              "type": "address"
            },
            {
              "internalType": "address payable",
              "name": "owner",
              "type": "address"
            },
            {
              "internalType": "uint256",
              "name": "price",
              "type": "uint256"
            },
            {
              "internalType": "bool",
              "name": "sold",
              "type": "bool"
            }
          ],
          "internalType": "struct NFTMarket.MarketItem[]",
          "name": "",
          "type": "tuple[]"
        }
      ],
      "stateMutability": "view",
      "type": "function"
    },
    {
      "inputs": [],
      "name": "fetchMarketItems",
      "outputs": [
        {
          "components": [
            {
              "internalType": "uint256",
              "name": "itemId",
              "type": "uint256"
            },
            {
              "internalType": "address",
              "name": "nftContract",
              "type": "address"
            },
            {
              "internalType": "uint256",
              "name": "tokenId",
              "type": "uint256"
            },
            {
              "internalType": "address payable",
              "name": "seller",
              "type": "address"
            },
            {
              "internalType": "address payable",
              "name": "owner",
              "type": "address"
            },
            {
              "internalType": "uint256",
              "name": "price",
              "type": "uint256"
            },
            {
              "internalType": "bool",
              "name": "sold",
              "type": "bool"
            }
          ],
          "internalType": "struct NFTMarket.MarketItem[]",
          "name": "",
          "type": "tuple[]"
        }
      ],
      "stateMutability": "view",
      "type": "function"
    },
    {
      "inputs": [],
      "name": "fetchMyNFTs",
      "outputs": [
        {
          "components": [
            {
              "internalType": "uint256",
              "name": "itemId",
              "type": "uint256"
            },
            {
              "internalType": "address",
              "name": "nftContract",
              "type": "address"
            },
            {
              "internalType": "uint256",
              "name": "tokenId",
              "type": "uint256"
            },
            {
              "internalType": "address payable",
              "name": "seller",
              "type": "address"
            },
            {
              "internalType": "address payable",
              "name": "owner",
              "type": "address"
            },
            {
              "internalType": "uint256",
              "name": "price",
              "type": "uint256"
            },
            {
              "internalType": "bool",
              "name": "sold",
              "type": "bool"
            }
          ],
          "internalType": "struct NFTMarket.MarketItem[]",
          "name": "",
          "type": "tuple[]"
        }
      ],
      "stateMutability": "view",
      "type": "function"
    },
    {
      "inputs": [],
      "name": "getListingPrice",
      "outputs": [
        {
          "internalType": "uint256",
          "name": "",
          "type": "uint256"
        }
      ],
      "stateMutability": "view",
      "type": "function"
    },
    {
      "inputs": [],
      "name": "owner",
      "outputs": [
        {
          "internalType": "address",
          "name": "",
          "type": "address"
        }
      ],
      "stateMutability": "view",
      "type": "function"
    },
    {
      "inputs": [],
      "name": "renounceOwnership",
      "outputs": [],
      "stateMutability": "nonpayable",
      "type": "function"
    },
    {
      "inputs": [
        {
          "internalType": "address",
          "name": "newOwner",
          "type": "address"
        }
      ],
      "name": "transferOwnership",
      "outputs": [],
      "stateMutability": "nonpayable",
      "type": "function"
    }
  ],
  "bytecode": "0x60806040526658d15e176280006004553480156200001c57600080fd5b50336001600081905550600073ffffffffffffffffffffffffffffffffffffffff168173ffffffffffffffffffffffffffffffffffffffff16036200009b5760006040517f1e4fbdf7000000000000000000000000000000000000000000000000000000008152600401620000929190620001be565b60405180910390fd5b620000ac81620000b360201b60201c565b50620001db565b6000600160009054906101000a900473ffffffffffffffffffffffffffffffffffffffff16905081600160006101000a81548173ffffffffffffffffffffffffffffffffffffffff021916908373ffffffffffffffffffffffffffffffffffffffff1602179055508173ffffffffffffffffffffffffffffffffffffffff168173ffffffffffffffffffffffffffffffffffffffff167f8be0079c531659141344cd1fd0a4f28419497f9722a3daafe3b4186f6b6457e060405160405180910390a35050565b600073ffffffffffffffffffffffffffffffffffffffff82169050919050565b6000620001a68262000179565b9050919050565b620001b88162000199565b82525050565b6000602082019050620001d56000830184620001ad565b92915050565b611ac680620001eb6000396000f3fe6080604052600436106100865760003560e01c8063715018a611610059578063715018a6146101285780638da5cb5b1461013f578063c23b139e1461016a578063f064c32e14610186578063f2fde38b146101b157610086565b80630f08efe01461008b57806312e85585146100b6578063202e3740146100e157806358eb2df51461010c575b600080fd5b34801561009757600080fd5b506100a06101da565b6040516100ad919061155b565b60405180910390f35b3480156100c257600080fd5b506100cb61048f565b6040516100d8919061158c565b60405180910390f35b3480156100ed57600080fd5b506100f6610499565b604051610103919061155b565b60405180910390f35b61012660048036038101906101219190611604565b6107d6565b005b34801561013457600080fd5b5061013d610afb565b005b34801561014b57600080fd5b50610154610b0f565b6040516101619190611666565b60405180910390f35b610184600480360381019061017f9190611681565b610b39565b005b34801561019257600080fd5b5061019b610d9f565b6040516101a8919061155b565b60405180910390f35b3480156101bd57600080fd5b506101d860048036038101906101d391906116c1565b6110dc565b005b60606000600254905060006003546002546101f5919061171d565b90506000808267ffffffffffffffff81111561021457610213611751565b5b60405190808252806020026020018201604052801561024d57816020015b61023a611307565b8152602001906001900390816102325790505b5090506000600190505b84811161048457600073ffffffffffffffffffffffffffffffffffffffff166005600083815260200190815260200160002060040160009054906101000a900473ffffffffffffffffffffffffffffffffffffffff1673ffffffffffffffffffffffffffffffffffffffff1603610471576000600560008381526020019081526020016000206000015490506000600560008381526020019081526020016000209050806040518060e0016040529081600082015481526020016001820160009054906101000a900473ffffffffffffffffffffffffffffffffffffffff1673ffffffffffffffffffffffffffffffffffffffff1673ffffffffffffffffffffffffffffffffffffffff168152602001600282015481526020016003820160009054906101000a900473ffffffffffffffffffffffffffffffffffffffff1673ffffffffffffffffffffffffffffffffffffffff1673ffffffffffffffffffffffffffffffffffffffff1681526020016004820160009054906101000a900473ffffffffffffffffffffffffffffffffffffffff1673ffffffffffffffffffffffffffffffffffffffff1673ffffffffffffffffffffffffffffffffffffffff168152602001600582015481526020016006820160009054906101000a900460ff16151515158152505084868151811061045457610453611780565b5b602002602001018190525060018561046c91906117af565b945050505b808061047c906117e3565b915050610257565b508094505050505090565b6000600454905090565b6060600060025490506000806000600190505b83811161053f573373ffffffffffffffffffffffffffffffffffffffff166005600083815260200190815260200160002060040160009054906101000a900473ffffffffffffffffffffffffffffffffffffffff1673ffffffffffffffffffffffffffffffffffffffff160361052c5760018361052991906117af565b92505b8080610537906117e3565b9150506104ac565b5060008267ffffffffffffffff81111561055c5761055b611751565b5b60405190808252806020026020018201604052801561059557816020015b610582611307565b81526020019060019003908161057a5790505b5090506000600190505b8481116107cb573373ffffffffffffffffffffffffffffffffffffffff166005600083815260200190815260200160002060040160009054906101000a900473ffffffffffffffffffffffffffffffffffffffff1673ffffffffffffffffffffffffffffffffffffffff16036107b8576000600560008381526020019081526020016000206000015490506000600560008381526020019081526020016000209050806040518060e0016040529081600082015481526020016001820160009054906101000a900473ffffffffffffffffffffffffffffffffffffffff1673ffffffffffffffffffffffffffffffffffffffff1673ffffffffffffffffffffffffffffffffffffffff168152602001600282015481526020016003820160009054906101000a900473ffffffffffffffffffffffffffffffffffffffff1673ffffffffffffffffffffffffffffffffffffffff1673ffffffffffffffffffffffffffffffffffffffff1681526020016004820160009054906101000a900473ffffffffffffffffffffffffffffffffffffffff1673ffffffffffffffffffffffffffffffffffffffff1673ffffffffffffffffffffffffffffffffffffffff168152602001600582015481526020016006820160009054906101000a900460ff16151515158152505084868151811061079b5761079a611780565b5b60200260200101819052506001856107b391906117af565b945050505b80806107c3906117e3565b91505061059f565b508094505050505090565b6107de611162565b60008111610821576040517f08c379a000000000000000000000000000000000000000000000000000000000815260040161081890611888565b60405180910390fd5b6004543414610865576040517f08c379a000000000000000000000000000000000000000000000000000000000815260040161085c9061191a565b60405180910390fd5b60026000815480929190610878906117e3565b9190505550600060025490506040518060e001604052808281526020018573ffffffffffffffffffffffffffffffffffffffff1681526020018481526020013373ffffffffffffffffffffffffffffffffffffffff168152602001600073ffffffffffffffffffffffffffffffffffffffff16815260200183815260200160001515815250600560008381526020019081526020016000206000820151816000015560208201518160010160006101000a81548173ffffffffffffffffffffffffffffffffffffffff021916908373ffffffffffffffffffffffffffffffffffffffff1602179055506040820151816002015560608201518160030160006101000a81548173ffffffffffffffffffffffffffffffffffffffff021916908373ffffffffffffffffffffffffffffffffffffffff16021790555060808201518160040160006101000a81548173ffffffffffffffffffffffffffffffffffffffff021916908373ffffffffffffffffffffffffffffffffffffffff16021790555060a0820151816005015560c08201518160060160006101000a81548160ff0219169083151502179055509050508373ffffffffffffffffffffffffffffffffffffffff166323b872dd3330866040518463ffffffff1660e01b8152600401610a639392919061193a565b600060405180830381600087803b158015610a7d57600080fd5b505af1158015610a91573d6000803e3d6000fd5b50505050828473ffffffffffffffffffffffffffffffffffffffff16827f045dfa01dcba2b36aba1d3dc4a874f4b0c5d2fbeb8d2c4b34a7d88c8d8f929d1336000876000604051610ae594939291906119df565b60405180910390a450610af66111a8565b505050565b610b036111b2565b610b0d6000611239565b565b6000600160009054906101000a900473ffffffffffffffffffffffffffffffffffffffff16905090565b610b41611162565b600060056000838152602001908152602001600020600501549050600060056000848152602001908152602001600020600201549050813414610bb9576040517f08c379a0000000000000000000000000000000000000000000000000000000008152600401610bb090611a70565b60405180910390fd5b6005600084815260200190815260200160002060030160009054906101000a900473ffffffffffffffffffffffffffffffffffffffff1673ffffffffffffffffffffffffffffffffffffffff166108fc349081150290604051600060405180830381858888f19350505050158015610c35573d6000803e3d6000fd5b508373ffffffffffffffffffffffffffffffffffffffff166323b872dd3033846040518463ffffffff1660e01b8152600401610c739392919061193a565b600060405180830381600087803b158015610c8d57600080fd5b505af1158015610ca1573d6000803e3d6000fd5b50505050336005600085815260200190815260200160002060040160006101000a81548173ffffffffffffffffffffffffffffffffffffffff021916908373ffffffffffffffffffffffffffffffffffffffff16021790555060016005600085815260200190815260200160002060060160006101000a81548160ff02191690831515021790555060036000815480929190610d3c906117e3565b9190505550610d49610b0f565b73ffffffffffffffffffffffffffffffffffffffff166108fc6004549081150290604051600060405180830381858888f19350505050158015610d90573d6000803e3d6000fd5b505050610d9b6111a8565b5050565b6060600060025490506000806000600190505b838111610e45573373ffffffffffffffffffffffffffffffffffffffff166005600083815260200190815260200160002060030160009054906101000a900473ffffffffffffffffffffffffffffffffffffffff1673ffffffffffffffffffffffffffffffffffffffff1603610e3257600183610e2f91906117af565b92505b8080610e3d906117e3565b915050610db2565b5060008267ffffffffffffffff811115610e6257610e61611751565b5b604051908082528060200260200182016040528015610e9b57816020015b610e88611307565b815260200190600190039081610e805790505b5090506000600190505b8481116110d1573373ffffffffffffffffffffffffffffffffffffffff166005600083815260200190815260200160002060030160009054906101000a900473ffffffffffffffffffffffffffffffffffffffff1673ffffffffffffffffffffffffffffffffffffffff16036110be576000600560008381526020019081526020016000206000015490506000600560008381526020019081526020016000209050806040518060e0016040529081600082015481526020016001820160009054906101000a900473ffffffffffffffffffffffffffffffffffffffff1673ffffffffffffffffffffffffffffffffffffffff1673ffffffffffffffffffffffffffffffffffffffff168152602001600282015481526020016003820160009054906101000a900473ffffffffffffffffffffffffffffffffffffffff1673ffffffffffffffffffffffffffffffffffffffff1673ffffffffffffffffffffffffffffffffffffffff1681526020016004820160009054906101000a900473ffffffffffffffffffffffffffffffffffffffff1673ffffffffffffffffffffffffffffffffffffffff1673ffffffffffffffffffffffffffffffffffffffff168152602001600582015481526020016006820160009054906101000a900460ff1615151515815250508486815181106110a1576110a0611780565b5b60200260200101819052506001856110b991906117af565b945050505b80806110c9906117e3565b915050610ea5565b508094505050505090565b6110e46111b2565b600073ffffffffffffffffffffffffffffffffffffffff168173ffffffffffffffffffffffffffffffffffffffff16036111565760006040517f1e4fbdf700000000000000000000000000000000000000000000000000000000815260040161114d9190611666565b60405180910390fd5b61115f81611239565b50565b60026000540361119e576040517f3ee5aeb500000000000000000000000000000000000000000000000000000000815260040160405180910390fd5b6002600081905550565b6001600081905550565b6111ba6112ff565b73ffffffffffffffffffffffffffffffffffffffff166111d8610b0f565b73ffffffffffffffffffffffffffffffffffffffff1614611237576111fb6112ff565b6040517f118cdaa700000000000000000000000000000000000000000000000000000000815260040161122e9190611666565b60405180910390fd5b565b6000600160009054906101000a900473ffffffffffffffffffffffffffffffffffffffff16905081600160006101000a81548173ffffffffffffffffffffffffffffffffffffffff021916908373ffffffffffffffffffffffffffffffffffffffff1602179055508173ffffffffffffffffffffffffffffffffffffffff168173ffffffffffffffffffffffffffffffffffffffff167f8be0079c531659141344cd1fd0a4f28419497f9722a3daafe3b4186f6b6457e060405160405180910390a35050565b600033905090565b6040518060e0016040528060008152602001600073ffffffffffffffffffffffffffffffffffffffff16815260200160008152602001600073ffffffffffffffffffffffffffffffffffffffff168152602001600073ffffffffffffffffffffffffffffffffffffffff168152602001600081526020016000151581525090565b600081519050919050565b600082825260208201905092915050565b6000819050602082019050919050565b6000819050919050565b6113c7816113b4565b82525050565b600073ffffffffffffffffffffffffffffffffffffffff82169050919050565b60006113f8826113cd565b9050919050565b611408816113ed565b82525050565b6000611419826113cd565b9050919050565b6114298161140e565b82525050565b60008115159050919050565b6114448161142f565b82525050565b60e08201600082015161146060008501826113be565b50602082015161147360208501826113ff565b50604082015161148660408501826113be565b5060608201516114996060850182611420565b5060808201516114ac6080850182611420565b5060a08201516114bf60a08501826113be565b5060c08201516114d260c085018261143b565b50505050565b60006114e4838361144a565b60e08301905092915050565b6000602082019050919050565b600061150882611388565b6115128185611393565b935061151d836113a4565b8060005b8381101561154e57815161153588826114d8565b9750611540836114f0565b925050600181019050611521565b5085935050505092915050565b6000602082019050818103600083015261157581846114fd565b905092915050565b611586816113b4565b82525050565b60006020820190506115a1600083018461157d565b92915050565b600080fd5b6115b5816113ed565b81146115c057600080fd5b50565b6000813590506115d2816115ac565b92915050565b6115e1816113b4565b81146115ec57600080fd5b50565b6000813590506115fe816115d8565b92915050565b60008060006060848603121561161d5761161c6115a7565b5b600061162b868287016115c3565b935050602061163c868287016115ef565b925050604061164d868287016115ef565b9150509250925092565b611660816113ed565b82525050565b600060208201905061167b6000830184611657565b92915050565b60008060408385031215611698576116976115a7565b5b60006116a6858286016115c3565b92505060206116b7858286016115ef565b9150509250929050565b6000602082840312156116d7576116d66115a7565b5b60006116e5848285016115c3565b91505092915050565b7f4e487b7100000000000000000000000000000000000000000000000000000000600052601160045260246000fd5b6000611728826113b4565b9150611733836113b4565b925082820390508181111561174b5761174a6116ee565b5b92915050565b7f4e487b7100000000000000000000000000000000000000000000000000000000600052604160045260246000fd5b7f4e487b7100000000000000000000000000000000000000000000000000000000600052603260045260246000fd5b60006117ba826113b4565b91506117c5836113b4565b92508282019050808211156117dd576117dc6116ee565b5b92915050565b60006117ee826113b4565b91507fffffffffffffffffffffffffffffffffffffffffffffffffffffffffffffffff82036118205761181f6116ee565b5b600182019050919050565b600082825260208201905092915050565b7f5072696365206d757374206265206174206c6561737420312077656900000000600082015250565b6000611872601c8361182b565b915061187d8261183c565b602082019050919050565b600060208201905081810360008301526118a181611865565b9050919050565b7f5072696365206d75737420626520657175616c20746f206c697374696e67207060008201527f7269636500000000000000000000000000000000000000000000000000000000602082015250565b600061190460248361182b565b915061190f826118a8565b604082019050919050565b60006020820190508181036000830152611933816118f7565b9050919050565b600060608201905061194f6000830186611657565b61195c6020830185611657565b611969604083018461157d565b949350505050565b6000819050919050565b600061199661199161198c846113cd565b611971565b6113cd565b9050919050565b60006119a88261197b565b9050919050565b60006119ba8261199d565b9050919050565b6119ca816119af565b82525050565b6119d98161142f565b82525050565b60006080820190506119f460008301876119c1565b611a0160208301866119c1565b611a0e604083018561157d565b611a1b60608301846119d0565b95945050505050565b7f506c65617365207375626d6974207468652061736b696e672070726963650000600082015250565b6000611a5a601e8361182b565b9150611a6582611a24565b602082019050919050565b60006020820190508181036000830152611a8981611a4d565b905091905056fea26469706673582212205f1dc3686627bb85b732a419ab186993f23dfa3eb0aa921bcee0a04b649d8fe564736f6c63430008140033",
  "linkReferences": {},
  "deployedLinkReferences": {}
}