{
  "_format": "hh-sol-artifact-1",
  "contractName": "NFTMarket",
  "sourceName": "contracts/NFTMarket.sol",
  "abi": [
    {
      "inputs": [],
      "stateMutability": "nonpayable",
      "type": "constructor"
    },
    {
      "inputs": [
        {
          "internalType": "address",
          "name": "owner",
          "type": "address"
        }
      ],
      "name": "OwnableInvalidOwner",
      "type": "error"
    },
    {
      "inputs": [
        {
          "internalType": "address",
          "name": "account",
          "type": "address"
        }
      ],
      "name": "OwnableUnauthorizedAccount",
      "type": "error"
    },
    {
      "inputs": [],
      "name": "ReentrancyGuardReentrantCall",
      "type": "error"
    },
    {
      "anonymous": false,
      "inputs": [
        {
          "indexed": true,
          "internalType": "uint256",
          "name": "itemId",
          "type": "uint256"
        },
        {
          "indexed": true,
          "internalType": "address",
          "name": "nftContract",
          "type": "address"
        },
        {
          "indexed": true,
          "internalType": "uint256",
          "name": "tokenId",
          "type": "uint256"
        },
        {
          "indexed": false,
          "internalType": "address",
          "name": "seller",
          "type": "address"
        },
        {
          "indexed": false,
          "internalType": "address",
          "name": "owner",
          "type": "address"
        },
        {
          "indexed": false,
          "internalType": "uint256",
          "name": "price",
          "type": "uint256"
        },
        {
          "indexed": false,
          "internalType": "bool",
          "name": "sold",
          "type": "bool"
        }
      ],
      "name": "MarketItemCreated",
      "type": "event"
    },
    {
      "anonymous": false,
      "inputs": [
        {
          "indexed": true,
          "internalType": "address",
          "name": "previousOwner",
          "type": "address"
        },
        {
          "indexed": true,
          "internalType": "address",
          "name": "newOwner",
          "type": "address"
        }
      ],
      "name": "OwnershipTransferred",
      "type": "event"
    },
    {
      "inputs": [
        {
          "internalType": "address",
          "name": "nftContract",
          "type": "address"
        },
        {
          "internalType": "uint256",
          "name": "tokenId",
          "type": "uint256"
        },
        {
          "internalType": "uint256",
          "name": "price",
          "type": "uint256"
        }
      ],
      "name": "createMarketItem",
      "outputs": [],
      "stateMutability": "payable",
      "type": "function"
    },
    {
      "inputs": [
        {
          "internalType": "address",
          "name": "nftContract",
          "type": "address"
        },
        {
          "internalType": "uint256",
          "name": "itemId",
          "type": "uint256"
        }
      ],
      "name": "createMarketSale",
      "outputs": [],
      "stateMutability": "payable",
      "type": "function"
    },
    {
      "inputs": [],
      "name": "fetchItemsCreated",
      "outputs": [
        {
          "components": [
            {
              "internalType": "uint256",
              "name": "itemId",
              "type": "uint256"
            },
            {
              "internalType": "address",
              "name": "nftContract",
              "type": "address"
            },
            {
              "internalType": "uint256",
              "name": "tokenId",
              "type": "uint256"
            },
            {
              "internalType": "address payable",
              "name": "seller",
              "type": "address"
            },
            {
              "internalType": "address payable",
              "name": "owner",
              "type": "address"
            },
            {
              "internalType": "uint256",
              "name": "price",
              "type": "uint256"
            },
            {
              "internalType": "bool",
              "name": "sold",
              "type": "bool"
            }
          ],
          "internalType": "struct NFTMarket.MarketItem[]",
          "name": "",
          "type": "tuple[]"
        }
      ],
      "stateMutability": "view",
      "type": "function"
    },
    {
      "inputs": [],
      "name": "fetchMarketItems",
      "outputs": [
        {
          "components": [
            {
              "internalType": "uint256",
              "name": "itemId",
              "type": "uint256"
            },
            {
              "internalType": "address",
              "name": "nftContract",
              "type": "address"
            },
            {
              "internalType": "uint256",
              "name": "tokenId",
              "type": "uint256"
            },
            {
              "internalType": "address payable",
              "name": "seller",
              "type": "address"
            },
            {
              "internalType": "address payable",
              "name": "owner",
              "type": "address"
            },
            {
              "internalType": "uint256",
              "name": "price",
              "type": "uint256"
            },
            {
              "internalType": "bool",
              "name": "sold",
              "type": "bool"
            }
          ],
          "internalType": "struct NFTMarket.MarketItem[]",
          "name": "",
          "type": "tuple[]"
        }
      ],
      "stateMutability": "view",
      "type": "function"
    },
    {
      "inputs": [],
      "name": "fetchMyNFTs",
      "outputs": [
        {
          "components": [
            {
              "internalType": "uint256",
              "name": "itemId",
              "type": "uint256"
            },
            {
              "internalType": "address",
              "name": "nftContract",
              "type": "address"
            },
            {
              "internalType": "uint256",
              "name": "tokenId",
              "type": "uint256"
            },
            {
              "internalType": "address payable",
              "name": "seller",
              "type": "address"
            },
            {
              "internalType": "address payable",
              "name": "owner",
              "type": "address"
            },
            {
              "internalType": "uint256",
              "name": "price",
              "type": "uint256"
            },
            {
              "internalType": "bool",
              "name": "sold",
              "type": "bool"
            }
          ],
          "internalType": "struct NFTMarket.MarketItem[]",
          "name": "",
          "type": "tuple[]"
        }
      ],
      "stateMutability": "view",
      "type": "function"
    },
    {
      "inputs": [],
      "name": "getListingPrice",
      "outputs": [
        {
          "internalType": "uint256",
          "name": "",
          "type": "uint256"
        }
      ],
      "stateMutability": "view",
      "type": "function"
    },
    {
      "inputs": [],
      "name": "owner",
      "outputs": [
        {
          "internalType": "address",
          "name": "",
          "type": "address"
        }
      ],
      "stateMutability": "view",
      "type": "function"
    },
    {
      "inputs": [],
      "name": "renounceOwnership",
      "outputs": [],
      "stateMutability": "nonpayable",
      "type": "function"
    },
    {
      "inputs": [
        {
          "internalType": "address",
          "name": "newOwner",
          "type": "address"
        }
      ],
      "name": "transferOwnership",
      "outputs": [],
      "stateMutability": "nonpayable",
      "type": "function"
    }
  ],
  "bytecode": "0x60806040526658d15e1762800060045534801561001b57600080fd5b506001600055338061004757604051631e4fbdf760e01b81526000600482015260240160405180910390fd5b61005081610056565b506100a8565b600180546001600160a01b038381166001600160a01b0319831681179093556040519116919082907f8be0079c531659141344cd1fd0a4f28419497f9722a3daafe3b4186f6b6457e090600090a35050565b610d43806100b76000396000f3fe6080604052600436106100865760003560e01c8063715018a611610059578063715018a6146100fe5780638da5cb5b14610113578063c23b139e1461013b578063f064c32e1461014e578063f2fde38b1461016357600080fd5b80630f08efe01461008b57806312e85585146100b6578063202e3740146100d457806358eb2df5146100e9575b600080fd5b34801561009757600080fd5b506100a0610183565b6040516100ad9190610b57565b60405180910390f35b3480156100c257600080fd5b506004546040519081526020016100ad565b3480156100e057600080fd5b506100a06102e3565b6100fc6100f7366004610c07565b61047b565b005b34801561010a57600080fd5b506100fc6106d6565b34801561011f57600080fd5b506001546040516001600160a01b0390911681526020016100ad565b6100fc610149366004610c3a565b6106ea565b34801561015a57600080fd5b506100a061089c565b34801561016f57600080fd5b506100fc61017e366004610c64565b610a34565b6002546003546060919060009061019a9083610c9c565b90506000808267ffffffffffffffff8111156101b8576101b8610cb5565b6040519080825280602002602001820160405280156101f157816020015b6101de610b1b565b8152602001906001900390816101d65790505b50905060015b8481116102da576000818152600560205260409020600401546001600160a01b03166102c85760008181526005602081815260408084205480855293819020815160e0810183528154815260018201546001600160a01b0390811694820194909452600282015492810192909252600381015483166060830152600481015490921660808201529181015460a0830152600681015460ff16151560c083015284519091908590879081106102ad576102ad610ccb565b60209081029190910101526102c3600186610ce1565b945050505b806102d281610cf4565b9150506101f7565b50949350505050565b60025460609060008060015b83811161033957600081815260056020526040902060040154336001600160a01b039091160361032757610324600184610ce1565b92505b8061033181610cf4565b9150506102ef565b5060008267ffffffffffffffff81111561035557610355610cb5565b60405190808252806020026020018201604052801561038e57816020015b61037b610b1b565b8152602001906001900390816103735790505b50905060015b8481116102da57600081815260056020526040902060040154336001600160a01b03909116036104695760008181526005602081815260408084205480855293819020815160e0810183528154815260018201546001600160a01b0390811694820194909452600282015492810192909252600381015483166060830152600481015490921660808201529181015460a0830152600681015460ff16151560c0830152845190919085908790811061044e5761044e610ccb565b6020908102919091010152610464600186610ce1565b945050505b8061047381610cf4565b915050610394565b610483610a72565b600081116104d85760405162461bcd60e51b815260206004820152601c60248201527f5072696365206d757374206265206174206c656173742031207765690000000060448201526064015b60405180910390fd5b60045434146105355760405162461bcd60e51b8152602060048201526024808201527f5072696365206d75737420626520657175616c20746f206c697374696e6720706044820152637269636560e01b60648201526084016104cf565b6002805490600061054583610cf4565b9091555050600280546040805160e0810182528281526001600160a01b0387811660208084018281528486018a8152336060870181815260006080890181815260a08a018e815260c08b018381528d8452600598899052928c90209a518b55955160018b0180546001600160a01b0319908116928c1692909217905594519c8a019c909c5590516003890180548516918916919091179055995160048089018054909416919097161790915590519185019190915595516006909301805460ff19169315159390931790925591516323b872dd60e01b815291820193909352306024820152604481018590529091906323b872dd90606401600060405180830381600087803b15801561065757600080fd5b505af115801561066b573d6000803e3d6000fd5b505060408051338152600060208201819052818301879052606082015290518693506001600160a01b038816925084917f045dfa01dcba2b36aba1d3dc4a874f4b0c5d2fbeb8d2c4b34a7d88c8d8f929d1919081900360800190a4506106d16001600055565b505050565b6106de610a9c565b6106e86000610ac9565b565b6106f2610a72565b60008181526005602081905260409091209081015460029091015434821461075c5760405162461bcd60e51b815260206004820152601e60248201527f506c65617365207375626d6974207468652061736b696e67207072696365000060448201526064016104cf565b6000838152600560205260408082206003015490516001600160a01b03909116913480156108fc02929091818181858888f193505050501580156107a4573d6000803e3d6000fd5b506040516323b872dd60e01b8152306004820152336024820152604481018290526001600160a01b038516906323b872dd90606401600060405180830381600087803b1580156107f357600080fd5b505af1158015610807573d6000803e3d6000fd5b50505060008481526005602052604081206004810180546001600160a01b03191633179055600601805460ff191660011790556003805492509061084a83610cf4565b90915550506001546004546040516001600160a01b039092169181156108fc0291906000818181858888f1935050505015801561088b573d6000803e3d6000fd5b5050506108986001600055565b5050565b60025460609060008060015b8381116108f257600081815260056020526040902060030154336001600160a01b03909116036108e0576108dd600184610ce1565b92505b806108ea81610cf4565b9150506108a8565b5060008267ffffffffffffffff81111561090e5761090e610cb5565b60405190808252806020026020018201604052801561094757816020015b610934610b1b565b81526020019060019003908161092c5790505b50905060015b8481116102da57600081815260056020526040902060030154336001600160a01b0390911603610a225760008181526005602081815260408084205480855293819020815160e0810183528154815260018201546001600160a01b0390811694820194909452600282015492810192909252600381015483166060830152600481015490921660808201529181015460a0830152600681015460ff16151560c08301528451909190859087908110610a0757610a07610ccb565b6020908102919091010152610a1d600186610ce1565b945050505b80610a2c81610cf4565b91505061094d565b610a3c610a9c565b6001600160a01b038116610a6657604051631e4fbdf760e01b8152600060048201526024016104cf565b610a6f81610ac9565b50565b600260005403610a9557604051633ee5aeb560e01b815260040160405180910390fd5b6002600055565b6001546001600160a01b031633146106e85760405163118cdaa760e01b81523360048201526024016104cf565b600180546001600160a01b038381166001600160a01b0319831681179093556040519116919082907f8be0079c531659141344cd1fd0a4f28419497f9722a3daafe3b4186f6b6457e090600090a35050565b6040805160e081018252600080825260208201819052918101829052606081018290526080810182905260a0810182905260c081019190915290565b602080825282518282018190526000919060409081850190868401855b82811015610bde57815180518552868101516001600160a01b039081168887015286820151878701526060808301518216908701526080808301519091169086015260a0808201519086015260c09081015115159085015260e09093019290850190600101610b74565b5091979650505050505050565b80356001600160a01b0381168114610c0257600080fd5b919050565b600080600060608486031215610c1c57600080fd5b610c2584610beb565b95602085013595506040909401359392505050565b60008060408385031215610c4d57600080fd5b610c5683610beb565b946020939093013593505050565b600060208284031215610c7657600080fd5b610c7f82610beb565b9392505050565b634e487b7160e01b600052601160045260246000fd5b81810381811115610caf57610caf610c86565b92915050565b634e487b7160e01b600052604160045260246000fd5b634e487b7160e01b600052603260045260246000fd5b80820180821115610caf57610caf610c86565b600060018201610d0657610d06610c86565b506001019056fea264697066735822122069b37a9ef2d253f48fd769c829687bd6524dc63896113d6b7ee1e1182ae2815964736f6c63430008140033",
  "linkReferences": {},
  "deployedLinkReferences": {}
}